{
  "_format": "hh-sol-artifact-1",
  "contractName": "MyToken",
  "sourceName": "src/MyToken.sol",
  "abi": [
    {
      "inputs": [],
      "stateMutability": "nonpayable",
      "type": "constructor"
    },
    {
      "inputs": [],
      "name": "admin",
      "outputs": [
        {
          "internalType": "address",
          "name": "",
          "type": "address"
        }
      ],
      "stateMutability": "view",
      "type": "function"
    },
    {
      "inputs": [],
      "name": "adminCancelGame",
      "outputs": [],
      "stateMutability": "nonpayable",
      "type": "function"
    },
    {
      "inputs": [
        {
          "internalType": "uint8[6]",
          "name": "newNums",
          "type": "uint8[6]"
        }
      ],
      "name": "buyTicket",
      "outputs": [],
      "stateMutability": "payable",
      "type": "function"
    },
    {
      "inputs": [],
      "name": "doCharityDonation",
      "outputs": [
        {
          "internalType": "uint256",
          "name": "",
          "type": "uint256"
        }
      ],
      "stateMutability": "view",
      "type": "function"
    },
    {
      "inputs": [],
      "name": "draw",
      "outputs": [],
      "stateMutability": "nonpayable",
      "type": "function"
    },
    {
      "inputs": [],
      "name": "enableGame",
      "outputs": [],
      "stateMutability": "nonpayable",
      "type": "function"
    },
    {
      "inputs": [],
      "name": "gameOngoing",
      "outputs": [
        {
          "internalType": "bool",
          "name": "",
          "type": "bool"
        }
      ],
      "stateMutability": "view",
      "type": "function"
    },
    {
      "inputs": [],
      "name": "gameRound",
      "outputs": [
        {
          "internalType": "uint32",
          "name": "",
          "type": "uint32"
        }
      ],
      "stateMutability": "view",
      "type": "function"
    },
    {
      "inputs": [],
      "name": "getExpectedPrize",
      "outputs": [
        {
          "internalType": "uint256",
          "name": "",
          "type": "uint256"
        }
      ],
      "stateMutability": "view",
      "type": "function"
    },
    {
      "inputs": [],
      "name": "getPlayerNumber",
      "outputs": [
        {
          "internalType": "uint32",
          "name": "",
          "type": "uint32"
        },
        {
          "internalType": "uint8[6]",
          "name": "",
          "type": "uint8[6]"
        }
      ],
      "stateMutability": "view",
      "type": "function"
    },
    {
      "inputs": [],
      "name": "getPoolBalance",
      "outputs": [
        {
          "internalType": "uint256",
          "name": "",
          "type": "uint256"
        }
      ],
      "stateMutability": "view",
      "type": "function"
    },
    {
      "inputs": [],
      "name": "getTicketPrice",
      "outputs": [
        {
          "internalType": "uint32",
          "name": "",
          "type": "uint32"
        }
      ],
      "stateMutability": "view",
      "type": "function"
    },
    {
      "inputs": [],
      "name": "getWinningNumber",
      "outputs": [
        {
          "internalType": "uint32",
          "name": "",
          "type": "uint32"
        },
        {
          "internalType": "uint8[6]",
          "name": "",
          "type": "uint8[6]"
        }
      ],
      "stateMutability": "view",
      "type": "function"
    },
    {
      "inputs": [],
      "name": "pauseGame",
      "outputs": [],
      "stateMutability": "nonpayable",
      "type": "function"
    },
    {
      "inputs": [],
      "name": "playerCancelTicket",
      "outputs": [],
      "stateMutability": "nonpayable",
      "type": "function"
    },
    {
      "inputs": [
        {
          "internalType": "uint256",
          "name": "",
          "type": "uint256"
        }
      ],
      "name": "playerList",
      "outputs": [
        {
          "internalType": "address",
          "name": "",
          "type": "address"
        }
      ],
      "stateMutability": "view",
      "type": "function"
    },
    {
      "inputs": [],
      "name": "playerNum",
      "outputs": [
        {
          "internalType": "uint32",
          "name": "",
          "type": "uint32"
        }
      ],
      "stateMutability": "view",
      "type": "function"
    },
    {
      "inputs": [],
      "name": "prizePercentage",
      "outputs": [
        {
          "internalType": "uint8",
          "name": "",
          "type": "uint8"
        }
      ],
      "stateMutability": "view",
      "type": "function"
    },
    {
      "inputs": [
        {
          "internalType": "uint8",
          "name": "newPercent",
          "type": "uint8"
        }
      ],
      "name": "setPrizePercentage",
      "outputs": [],
      "stateMutability": "nonpayable",
      "type": "function"
    },
    {
      "inputs": [
        {
          "internalType": "uint32",
          "name": "newPrice",
          "type": "uint32"
        }
      ],
      "name": "setTicketPrice",
      "outputs": [],
      "stateMutability": "nonpayable",
      "type": "function"
    },
    {
      "inputs": [
        {
          "internalType": "address",
          "name": "",
          "type": "address"
        }
      ],
      "name": "ticketOrders",
      "outputs": [
        {
          "internalType": "bool",
          "name": "isValid",
          "type": "bool"
        },
        {
          "internalType": "bool",
          "name": "isClaimed",
          "type": "bool"
        },
        {
          "internalType": "uint32",
          "name": "playerGameRound",
          "type": "uint32"
        }
      ],
      "stateMutability": "view",
      "type": "function"
    },
    {
      "inputs": [],
      "name": "ticketPrice",
      "outputs": [
        {
          "internalType": "uint32",
          "name": "",
          "type": "uint32"
        }
      ],
      "stateMutability": "view",
      "type": "function"
    },
    {
      "inputs": [
        {
          "internalType": "uint256",
          "name": "",
          "type": "uint256"
        }
      ],
      "name": "winnerList",
      "outputs": [
        {
          "internalType": "address",
          "name": "",
          "type": "address"
        }
      ],
      "stateMutability": "view",
      "type": "function"
    },
    {
      "inputs": [
        {
          "internalType": "uint256",
          "name": "",
          "type": "uint256"
        }
      ],
      "name": "winningNums",
      "outputs": [
        {
          "internalType": "uint8",
          "name": "",
          "type": "uint8"
        }
      ],
      "stateMutability": "view",
      "type": "function"
    }
  ],
  "bytecode": "0x60806040523480156200001157600080fd5b5033600060016101000a81548173ffffffffffffffffffffffffffffffffffffffff021916908373ffffffffffffffffffffffffffffffffffffffff16021790555060016000601a6101000a81548163ffffffff021916908363ffffffff1602179055506207a120600060156101000a81548163ffffffff021916908363ffffffff1602179055506046600060196101000a81548160ff021916908360ff16021790555060008060006101000a81548160ff02191690831515021790555060005b60068160ff1610156200013157600060018260ff1660068110620000fb57620000fa62000138565b5b602091828204019190066101000a81548160ff021916908360ff16021790555080806200012890620001a3565b915050620000d2565b50620001d1565b7f4e487b7100000000000000000000000000000000000000000000000000000000600052603260045260246000fd5b7f4e487b7100000000000000000000000000000000000000000000000000000000600052601160045260246000fd5b600060ff82169050919050565b6000620001b08262000196565b915060ff8203620001c657620001c562000167565b5b600182019050919050565b61308880620001e16000396000f3fe60806040526004361061014b5760003560e01c806374f7d741116100b6578063bdd42f2d1161006f578063bdd42f2d1461043e578063c6cac2a91461045a578063d23e79e614610483578063dc2d4961146104c2578063ef6920d7146104eb578063f851a440146105025761014b565b806374f7d7411461033d57806387bb7ae0146103545780638b0b9ed41461037f578063a5f9b5c2146103ab578063abd70aa2146103d6578063ae6d9073146104015761014b565b806313eaac6c1161010857806313eaac6c1461023e578063239746011461026a578063340988de146102a7578063499831f2146102be5780635578027e146102d557806365f81946146103125761014b565b806303e28366146101505780630eecae211461017b578063104492a014610192578063112d83c2146101bd57806311dc7335146101e85780631209b1f614610213575b600080fd5b34801561015c57600080fd5b5061016561052d565b60405161017291906120f2565b60405180910390f35b34801561018757600080fd5b50610190610543565b005b34801561019e57600080fd5b506101a7610cf3565b6040516101b49190612126565b60405180910390f35b3480156101c957600080fd5b506101d2610d24565b6040516101df9190612126565b60405180910390f35b3480156101f457600080fd5b506101fd610dbb565b60405161020a919061215d565b60405180910390f35b34801561021f57600080fd5b50610228610dce565b60405161023591906120f2565b60405180910390f35b34801561024a57600080fd5b50610253610de4565b604051610261929190612223565b60405180910390f35b34801561027657600080fd5b50610291600480360381019061028c9190612287565b610ef0565b60405161029e919061215d565b60405180910390f35b3480156102b357600080fd5b506102bc610f1a565b005b3480156102ca57600080fd5b506102d361110c565b005b3480156102e157600080fd5b506102fc60048036038101906102f79190612287565b6111b8565b60405161030991906122f5565b60405180910390f35b34801561031e57600080fd5b506103276111f7565b604051610334919061232b565b60405180910390f35b34801561034957600080fd5b50610352611208565b005b34801561036057600080fd5b5061036961135a565b60405161037691906120f2565b60405180910390f35b34801561038b57600080fd5b50610394611373565b6040516103a2929190612223565b60405180910390f35b3480156103b757600080fd5b506103c061140b565b6040516103cd91906120f2565b60405180910390f35b3480156103e257600080fd5b506103eb611421565b6040516103f89190612126565b60405180910390f35b34801561040d57600080fd5b5061042860048036038101906104239190612287565b611429565b60405161043591906122f5565b60405180910390f35b610458600480360381019061045391906124b9565b611468565b005b34801561046657600080fd5b50610481600480360381019061047c9190612512565b611a53565b005b34801561048f57600080fd5b506104aa60048036038101906104a5919061256b565b611b50565b6040516104b993929190612598565b60405180910390f35b3480156104ce57600080fd5b506104e960048036038101906104e491906125cf565b611ba4565b005b3480156104f757600080fd5b50610500611ca8565b005b34801561050e57600080fd5b50610517611d54565b60405161052491906122f5565b60405180910390f35b600260009054906101000a900463ffffffff1681565b600060019054906101000a900473ffffffffffffffffffffffffffffffffffffffff1673ffffffffffffffffffffffffffffffffffffffff163373ffffffffffffffffffffffffffffffffffffffff16146105d3576040517f08c379a00000000000000000000000000000000000000000000000000000000081526004016105ca9061267f565b60405180910390fd5b6000600260009054906101000a900463ffffffff1663ffffffff161161062e576040517f08c379a000000000000000000000000000000000000000000000000000000000815260040161062590612711565b60405180910390fd5b60008060006101000a81548160ff021916908315150217905550610650611d7a565b6001906006610660929190611fd9565b5060005b600260009054906101000a900463ffffffff1663ffffffff168163ffffffff161015610a04576000601a9054906101000a900463ffffffff1663ffffffff166005600060038463ffffffff16815481106106c1576106c0612731565b5b9060005260206000200160009054906101000a900473ffffffffffffffffffffffffffffffffffffffff1673ffffffffffffffffffffffffffffffffffffffff1673ffffffffffffffffffffffffffffffffffffffff16815260200190815260200160002060000160029054906101000a900463ffffffff1663ffffffff161480156107e45750600115156005600060038463ffffffff168154811061076a57610769612731565b5b9060005260206000200160009054906101000a900473ffffffffffffffffffffffffffffffffffffffff1673ffffffffffffffffffffffffffffffffffffffff1673ffffffffffffffffffffffffffffffffffffffff16815260200190815260200160002060000160009054906101000a900460ff161515145b156109f157600061093f6005600060038563ffffffff168154811061080c5761080b612731565b5b9060005260206000200160009054906101000a900473ffffffffffffffffffffffffffffffffffffffff1673ffffffffffffffffffffffffffffffffffffffff1673ffffffffffffffffffffffffffffffffffffffff1681526020019081526020016000206001016006806020026040519081016040528092919082600680156108d1576020028201916000905b82829054906101000a900460ff1660ff168152602001906001019060208260000104928301926001038202915080841161089a5790505b50505050506001600680602002604051908101604052809291908260068015610935576020028201916000905b82829054906101000a900460ff1660ff16815260200190600101906020826000010492830192600103820291508084116108fe5790505b5050505050611eb3565b905080156109ef57600460038363ffffffff168154811061096357610962612731565b5b9060005260206000200160009054906101000a900473ffffffffffffffffffffffffffffffffffffffff169080600181540180825580915050600190039060005260206000200160009091909190916101000a81548173ffffffffffffffffffffffffffffffffffffffff021916908373ffffffffffffffffffffffffffffffffffffffff1602179055505b505b80806109fc9061278f565b915050610664565b5060006004805490501115610c815760006004805490506064610a2791906127bb565b600060199054906101000a900460ff1660ff1647610a4591906127bb565b610a4f919061282c565b905060005b6004805490508163ffffffff161015610c7e57600015156005600060048463ffffffff1681548110610a8957610a88612731565b5b9060005260206000200160009054906101000a900473ffffffffffffffffffffffffffffffffffffffff1673ffffffffffffffffffffffffffffffffffffffff1673ffffffffffffffffffffffffffffffffffffffff16815260200190815260200160002060000160019054906101000a900460ff16151514610b41576040517f08c379a0000000000000000000000000000000000000000000000000000000008152600401610b38906128cf565b60405180910390fd5b60016005600060048463ffffffff1681548110610b6157610b60612731565b5b9060005260206000200160009054906101000a900473ffffffffffffffffffffffffffffffffffffffff1673ffffffffffffffffffffffffffffffffffffffff1673ffffffffffffffffffffffffffffffffffffffff16815260200190815260200160002060000160016101000a81548160ff02191690831515021790555060048163ffffffff1681548110610bfa57610bf9612731565b5b9060005260206000200160009054906101000a900473ffffffffffffffffffffffffffffffffffffffff1673ffffffffffffffffffffffffffffffffffffffff166108fc839081150290604051600060405180830381858888f19350505050158015610c6a573d6000803e3d6000fd5b508080610c769061278f565b915050610a54565b50505b60016000601a8282829054906101000a900463ffffffff16610ca391906128ef565b92506101000a81548163ffffffff021916908363ffffffff1602179055506000600260006101000a81548163ffffffff021916908363ffffffff16021790555060036000610cf19190612073565b565b60006064600060199054906101000a900460ff1660ff1647610d1591906127bb565b610d1f919061282c565b905090565b60008060019054906101000a900473ffffffffffffffffffffffffffffffffffffffff1673ffffffffffffffffffffffffffffffffffffffff163373ffffffffffffffffffffffffffffffffffffffff1614610db5576040517f08c379a0000000000000000000000000000000000000000000000000000000008152600401610dac9061267f565b60405180910390fd5b47905090565b600060199054906101000a900460ff1681565b600060159054906101000a900463ffffffff1681565b6000610dee612094565b600560003373ffffffffffffffffffffffffffffffffffffffff1673ffffffffffffffffffffffffffffffffffffffff16815260200190815260200160002060000160029054906101000a900463ffffffff16600560003373ffffffffffffffffffffffffffffffffffffffff1673ffffffffffffffffffffffffffffffffffffffff16815260200190815260200160002060010180600680602002604051908101604052809291908260068015610ee1576020028201916000905b82829054906101000a900460ff1660ff1681526020019060010190602082600001049283019260010382029150808411610eaa5790505b50505050509050915091509091565b60018160068110610f0057600080fd5b60209182820401919006915054906101000a900460ff1681565b6000151560008054906101000a900460ff16151514610f6e576040517f08c379a0000000000000000000000000000000000000000000000000000000008152600401610f6590612999565b60405180910390fd5b60005b600260009054906101000a900463ffffffff1663ffffffff168163ffffffff161015611109576000601a9054906101000a900463ffffffff1663ffffffff166005600060038463ffffffff1681548110610fce57610fcd612731565b5b9060005260206000200160009054906101000a900473ffffffffffffffffffffffffffffffffffffffff1673ffffffffffffffffffffffffffffffffffffffff1673ffffffffffffffffffffffffffffffffffffffff16815260200190815260200160002060000160029054906101000a900463ffffffff1663ffffffff16036110f65760038163ffffffff168154811061106c5761106b612731565b5b9060005260206000200160009054906101000a900473ffffffffffffffffffffffffffffffffffffffff1673ffffffffffffffffffffffffffffffffffffffff166108fc600060159054906101000a900463ffffffff1663ffffffff169081150290604051600060405180830381858888f193505050501580156110f4573d6000803e3d6000fd5b505b80806111019061278f565b915050610f71565b50565b600060019054906101000a900473ffffffffffffffffffffffffffffffffffffffff1673ffffffffffffffffffffffffffffffffffffffff163373ffffffffffffffffffffffffffffffffffffffff161461119c576040517f08c379a00000000000000000000000000000000000000000000000000000000081526004016111939061267f565b60405180910390fd5b60008060006101000a81548160ff021916908315150217905550565b600481815481106111c857600080fd5b906000526020600020016000915054906101000a900473ffffffffffffffffffffffffffffffffffffffff1681565b60008054906101000a900460ff1681565b60011515600560003373ffffffffffffffffffffffffffffffffffffffff1673ffffffffffffffffffffffffffffffffffffffff16815260200190815260200160002060000160009054906101000a900460ff1615151461129e576040517f08c379a000000000000000000000000000000000000000000000000000000000815260040161129590612a2b565b60405180910390fd5b6000600560003373ffffffffffffffffffffffffffffffffffffffff1673ffffffffffffffffffffffffffffffffffffffff16815260200190815260200160002060000160006101000a81548160ff0219169083151502179055503373ffffffffffffffffffffffffffffffffffffffff166108fc600060159054906101000a900463ffffffff1663ffffffff169081150290604051600060405180830381858888f19350505050158015611357573d6000803e3d6000fd5b50565b60008060159054906101000a900463ffffffff16905090565b600061137d612094565b60016000601a9054906101000a900463ffffffff1661139c9190612a4b565b6001806006806020026040519081016040528092919082600680156113fc576020028201916000905b82829054906101000a900460ff1660ff16815260200190600101906020826000010492830192600103820291508084116113c55790505b50505050509050915091509091565b6000601a9054906101000a900463ffffffff1681565b600047905090565b6003818154811061143957600080fd5b906000526020600020016000915054906101000a900473ffffffffffffffffffffffffffffffffffffffff1681565b6001151560008054906101000a900460ff161515146114bc576040517f08c379a00000000000000000000000000000000000000000000000000000000081526004016114b390612acf565b60405180910390fd5b60001515600560003373ffffffffffffffffffffffffffffffffffffffff1673ffffffffffffffffffffffffffffffffffffffff16815260200190815260200160002060000160009054906101000a900460ff161515148061158e57506000601a9054906101000a900463ffffffff1663ffffffff16600560003373ffffffffffffffffffffffffffffffffffffffff1673ffffffffffffffffffffffffffffffffffffffff16815260200190815260200160002060000160029054906101000a900463ffffffff1663ffffffff1614155b6115cd576040517f08c379a00000000000000000000000000000000000000000000000000000000081526004016115c490612b61565b60405180910390fd5b600060159054906101000a900463ffffffff1663ffffffff163414611627576040517f08c379a000000000000000000000000000000000000000000000000000000000815260040161161e90612c19565b60405180910390fd5b6000805b60058160ff1610156116c25760006001826116469190612c39565b90505b60068160ff1610156116ae57838160ff166006811061166b5761166a612731565b5b602002015160ff16848360ff166006811061168957611688612731565b5b602002015160ff160361169b57600192505b80806116a690612c6e565b915050611649565b5080806116ba90612c6e565b91505061162b565b50600015158115151461170a576040517f08c379a000000000000000000000000000000000000000000000000000000000815260040161170190612d09565b60405180910390fd5b60006001905060005b60068160ff161015611785576001848260ff166006811061173757611736612731565b5b602002015160ff16108061176857506031848260ff166006811061175e5761175d612731565b5b602002015160ff16115b1561177257600091505b808061177d90612c6e565b915050611713565b5060011515811515146117cd576040517f08c379a00000000000000000000000000000000000000000000000000000000081526004016117c490612d9b565b60405180910390fd5b6000601a9054906101000a900463ffffffff16600560003373ffffffffffffffffffffffffffffffffffffffff1673ffffffffffffffffffffffffffffffffffffffff16815260200190815260200160002060000160026101000a81548163ffffffff021916908363ffffffff1602179055506001600560003373ffffffffffffffffffffffffffffffffffffffff1673ffffffffffffffffffffffffffffffffffffffff16815260200190815260200160002060000160006101000a81548160ff0219169083151502179055506000600560003373ffffffffffffffffffffffffffffffffffffffff1673ffffffffffffffffffffffffffffffffffffffff16815260200190815260200160002060000160016101000a81548160ff02191690831515021790555060005b60068160ff1610156119aa57838160ff166006811061191b5761191a612731565b5b6020020151600560003373ffffffffffffffffffffffffffffffffffffffff1673ffffffffffffffffffffffffffffffffffffffff1681526020019081526020016000206001018260ff166006811061197757611976612731565b5b602091828204019190066101000a81548160ff021916908360ff16021790555080806119a290612c6e565b9150506118f9565b506003339080600181540180825580915050600190039060005260206000200160009091909190916101000a81548173ffffffffffffffffffffffffffffffffffffffff021916908373ffffffffffffffffffffffffffffffffffffffff1602179055506001600260008282829054906101000a900463ffffffff16611a3091906128ef565b92506101000a81548163ffffffff021916908363ffffffff160217905550505050565b600060019054906101000a900473ffffffffffffffffffffffffffffffffffffffff1673ffffffffffffffffffffffffffffffffffffffff163373ffffffffffffffffffffffffffffffffffffffff1614611ae3576040517f08c379a0000000000000000000000000000000000000000000000000000000008152600401611ada9061267f565b60405180910390fd5b60008163ffffffff1611611b2c576040517f08c379a0000000000000000000000000000000000000000000000000000000008152600401611b2390612e2d565b60405180910390fd5b80600060156101000a81548163ffffffff021916908363ffffffff16021790555050565b60056020528060005260406000206000915090508060000160009054906101000a900460ff16908060000160019054906101000a900460ff16908060000160029054906101000a900463ffffffff16905083565b600060019054906101000a900473ffffffffffffffffffffffffffffffffffffffff1673ffffffffffffffffffffffffffffffffffffffff163373ffffffffffffffffffffffffffffffffffffffff1614611c34576040517f08c379a0000000000000000000000000000000000000000000000000000000008152600401611c2b9061267f565b60405180910390fd5b60008160ff16118015611c4b5750605a8160ff1611155b611c8a576040517f08c379a0000000000000000000000000000000000000000000000000000000008152600401611c8190612ebf565b60405180910390fd5b80600060196101000a81548160ff021916908360ff16021790555050565b600060019054906101000a900473ffffffffffffffffffffffffffffffffffffffff1673ffffffffffffffffffffffffffffffffffffffff163373ffffffffffffffffffffffffffffffffffffffff1614611d38576040517f08c379a0000000000000000000000000000000000000000000000000000000008152600401611d2f9061267f565b60405180910390fd5b60016000806101000a81548160ff021916908315150217905550565b600060019054906101000a900473ffffffffffffffffffffffffffffffffffffffff1681565b611d82612094565b611d8a612094565b60004233604051602001611d9f929190612f48565b6040516020818303038152906040528051906020012060001c905060005b60068160ff161015611eaa5760006001603184611dda9190612f74565b611de49190612c39565b90505b611df18482611f75565b15611e425782604051602001611e079190612fa5565b6040516020818303038152906040528051906020012060001c92506001603184611e319190612f74565b611e3b9190612c39565b9050611de7565b80848360ff1660068110611e5957611e58612731565b5b602002019060ff16908160ff168152505082604051602001611e7b9190612fa5565b6040516020818303038152906040528051906020012060001c9250508080611ea290612c6e565b915050611dbd565b50819250505090565b600060068014611ef8576040517f08c379a0000000000000000000000000000000000000000000000000000000008152600401611eef90613032565b60405180910390fd5b60006001905060005b60068160ff161015611f6a57838160ff1660068110611f2357611f22612731565b5b602002015160ff16858260ff1660068110611f4157611f40612731565b5b602002015160ff1614611f575760009150611f6a565b8080611f6290612c6e565b915050611f01565b508091505092915050565b600080600090505b60068160ff161015611fcd578260ff16848260ff1660068110611fa357611fa2612731565b5b602002015160ff1603611fba576001915050611fd3565b8080611fc590612c6e565b915050611f7d565b50600090505b92915050565b826006601f016020900481019282156120625791602002820160005b8382111561203357835183826101000a81548160ff021916908360ff1602179055509260200192600101602081600001049283019260010302611ff5565b80156120605782816101000a81549060ff0219169055600101602081600001049283019260010302612033565b505b50905061206f91906120b6565b5090565b508054600082559060005260206000209081019061209191906120b6565b50565b6040518060c00160405280600690602082028036833780820191505090505090565b5b808211156120cf5760008160009055506001016120b7565b5090565b600063ffffffff82169050919050565b6120ec816120d3565b82525050565b600060208201905061210760008301846120e3565b92915050565b6000819050919050565b6121208161210d565b82525050565b600060208201905061213b6000830184612117565b92915050565b600060ff82169050919050565b61215781612141565b82525050565b6000602082019050612172600083018461214e565b92915050565b600060069050919050565b600081905092915050565b6000819050919050565b6121a181612141565b82525050565b60006121b38383612198565b60208301905092915050565b6000602082019050919050565b6121d581612178565b6121df8184612183565b92506121ea8261218e565b8060005b8381101561221b57815161220287826121a7565b965061220d836121bf565b9250506001810190506121ee565b505050505050565b600060e08201905061223860008301856120e3565b61224560208301846121cc565b9392505050565b6000604051905090565b600080fd5b6122648161210d565b811461226f57600080fd5b50565b6000813590506122818161225b565b92915050565b60006020828403121561229d5761229c612256565b5b60006122ab84828501612272565b91505092915050565b600073ffffffffffffffffffffffffffffffffffffffff82169050919050565b60006122df826122b4565b9050919050565b6122ef816122d4565b82525050565b600060208201905061230a60008301846122e6565b92915050565b60008115159050919050565b61232581612310565b82525050565b6000602082019050612340600083018461231c565b92915050565b600080fd5b6000601f19601f8301169050919050565b7f4e487b7100000000000000000000000000000000000000000000000000000000600052604160045260246000fd5b6123948261234b565b810181811067ffffffffffffffff821117156123b3576123b261235c565b5b80604052505050565b60006123c661224c565b90506123d2828261238b565b919050565b600067ffffffffffffffff8211156123f2576123f161235c565b5b602082029050919050565b600080fd5b61240b81612141565b811461241657600080fd5b50565b60008135905061242881612402565b92915050565b600061244161243c846123d7565b6123bc565b9050806020840283018581111561245b5761245a6123fd565b5b835b8181101561248457806124708882612419565b84526020840193505060208101905061245d565b5050509392505050565b600082601f8301126124a3576124a2612346565b5b60066124b084828561242e565b91505092915050565b600060c082840312156124cf576124ce612256565b5b60006124dd8482850161248e565b91505092915050565b6124ef816120d3565b81146124fa57600080fd5b50565b60008135905061250c816124e6565b92915050565b60006020828403121561252857612527612256565b5b6000612536848285016124fd565b91505092915050565b612548816122d4565b811461255357600080fd5b50565b6000813590506125658161253f565b92915050565b60006020828403121561258157612580612256565b5b600061258f84828501612556565b91505092915050565b60006060820190506125ad600083018661231c565b6125ba602083018561231c565b6125c760408301846120e3565b949350505050565b6000602082840312156125e5576125e4612256565b5b60006125f384828501612419565b91505092915050565b600082825260208201905092915050565b7f4f6e6c792074686520636f6e74726163742061646d696e2063616e2063616c6c60008201527f20746869732066756e6374696f6e2e0000000000000000000000000000000000602082015250565b6000612669602f836125fc565b91506126748261260d565b604082019050919050565b600060208201905081810360008301526126988161265c565b9050919050565b7f54686572652073686f756c64206265206174206c65617374206f6e6520706c6160008201527f79657220696e20612067616d652e000000000000000000000000000000000000602082015250565b60006126fb602e836125fc565b91506127068261269f565b604082019050919050565b6000602082019050818103600083015261272a816126ee565b9050919050565b7f4e487b7100000000000000000000000000000000000000000000000000000000600052603260045260246000fd5b7f4e487b7100000000000000000000000000000000000000000000000000000000600052601160045260246000fd5b600061279a826120d3565b915063ffffffff82036127b0576127af612760565b5b600182019050919050565b60006127c68261210d565b91506127d18361210d565b92508282026127df8161210d565b915082820484148315176127f6576127f5612760565b5b5092915050565b7f4e487b7100000000000000000000000000000000000000000000000000000000600052601260045260246000fd5b60006128378261210d565b91506128428361210d565b925082612852576128516127fd565b5b828204905092915050565b7f57696e6e65722068617320616c726561647920636c61696d656420746865207060008201527f72697a652e000000000000000000000000000000000000000000000000000000602082015250565b60006128b96025836125fc565b91506128c48261285d565b604082019050919050565b600060208201905081810360008301526128e8816128ac565b9050919050565b60006128fa826120d3565b9150612905836120d3565b9250828201905063ffffffff81111561292157612920612760565b5b92915050565b7f506c65617365207061757365207468652067616d65206265666f72652063616e60008201527f63656c6c696e672069742e000000000000000000000000000000000000000000602082015250565b6000612983602b836125fc565b915061298e82612927565b604082019050919050565b600060208201905081810360008301526129b281612976565b9050919050565b7f546865207469636b657420697320696e76616c696420616e642074687573206360008201527f616e6e6f742070726f636565642e000000000000000000000000000000000000602082015250565b6000612a15602e836125fc565b9150612a20826129b9565b604082019050919050565b60006020820190508181036000830152612a4481612a08565b9050919050565b6000612a56826120d3565b9150612a61836120d3565b9250828203905063ffffffff811115612a7d57612a7c612760565b5b92915050565b7f47616d65206973206e6f74206f6e676f696e672e000000000000000000000000600082015250565b6000612ab96014836125fc565b9150612ac482612a83565b602082019050919050565b60006020820190508181036000830152612ae881612aac565b9050919050565b7f4f6e6c79206f6e65207469636b6574206174206d6f737420696e20612067616d60008201527f6520726f756e642e000000000000000000000000000000000000000000000000602082015250565b6000612b4b6028836125fc565b9150612b5682612aef565b604082019050919050565b60006020820190508181036000830152612b7a81612b3e565b9050919050565b7f496e636f72726563742070616964204574686572732c20636865636b2074686560008201527f2070726963652062792066756e6374696f6e206765745469636b65745072696360208201527f6520616e642074727920616761696e2e00000000000000000000000000000000604082015250565b6000612c036050836125fc565b9150612c0e82612b81565b606082019050919050565b60006020820190508181036000830152612c3281612bf6565b9050919050565b6000612c4482612141565b9150612c4f83612141565b9250828201905060ff811115612c6857612c67612760565b5b92915050565b6000612c7982612141565b915060ff8203612c8c57612c8b612760565b5b600182019050919050565b7f4e6f206475706c6963617465206e756d626572732061726520616c6c6f77656460008201527f2e00000000000000000000000000000000000000000000000000000000000000602082015250565b6000612cf36021836125fc565b9150612cfe82612c97565b604082019050919050565b60006020820190508181036000830152612d2281612ce6565b9050919050565b7f416c6c2073656c6563746564206e756d626572732073686f756c64206265206260008201527f65747765656e20317e34392c20696e636c75736976652e000000000000000000602082015250565b6000612d856037836125fc565b9150612d9082612d29565b604082019050919050565b60006020820190508181036000830152612db481612d78565b9050919050565b7f546865206e6577207469636b65742070726963652073686f756c64206265206c60008201527f6172676572207468616e20302e00000000000000000000000000000000000000602082015250565b6000612e17602d836125fc565b9150612e2282612dbb565b604082019050919050565b60006020820190508181036000830152612e4681612e0a565b9050919050565b7f546865206e65772070657263656e746167652073686f756c64206265203e203060008201527f20616e64203c3d2039302e000000000000000000000000000000000000000000602082015250565b6000612ea9602b836125fc565b9150612eb482612e4d565b604082019050919050565b60006020820190508181036000830152612ed881612e9c565b9050919050565b6000819050919050565b612efa612ef58261210d565b612edf565b82525050565b60008160601b9050919050565b6000612f1882612f00565b9050919050565b6000612f2a82612f0d565b9050919050565b612f42612f3d826122d4565b612f1f565b82525050565b6000612f548285612ee9565b602082019150612f648284612f31565b6014820191508190509392505050565b6000612f7f8261210d565b9150612f8a8361210d565b925082612f9a57612f996127fd565b5b828206905092915050565b6000612fb18284612ee9565b60208201915081905092915050565b7f506c61796572206e756d626572206c656e6774682073686f756c64206265206560008201527f7175616c20746f2077696e6e6572206e756d626572206c656e6774682e000000602082015250565b600061301c603d836125fc565b915061302782612fc0565b604082019050919050565b6000602082019050818103600083015261304b8161300f565b905091905056fea2646970667358221220d740e207c2ad4d3c59ae9199346f9b7479696c5774862080afa76b80c4eb473864736f6c63430008110033",
  "linkReferences": {},
  "deployedLinkReferences": {}
}